S00F00004D6567614A6F792E7372656369
S11300000C9419010C9436010C9436010C943601AD
S11300100C9436010C9436010C9436010C94360180
S11300200C9436010C9436010C9436010C9406049D
S11300300C9427040C9436010C9436010C9436016C
S11300400C9436010C9436010C9436010C94360150
S11300500C9436010C9436010C9436010C94360140
S11300600C9436010C9436010C9436010C94360130
S11300700C94360121260107000000000001000055
S113008019021200020000030122002100001501E0
S113009009002200002501F400030000FF00040110
S11300A0030904D9002402030904AD002A2A0352D7
S11300B0006100660069007400610020004A006F5E
S11300C000790073007400690063006B0020003243
S11300D00030003000300000002403490073006148
S11300E00069006100730020005000650072006523
S11300F0007A00200043002E004F002E0000000470
S113010003090409022200010100803209040000ED
S1130110010300000009211101000122F400070578
S1130120810340000A05010905A101850115002587
S11301300135004501750195200509190129208122
S11301400205012507463B0175049501651409392B
S1130150814265009501810116000026FF033600E7
S11301600046FF03093009310932093309340935DE
S11301707510950681020600FF092009210922094C
S113018023092409250926092709280929092A09EF
S11301902B7508950C81020A21269508B102C00529
S11301A0010905A1018502150025013500450175E8
S11301B00195200509190129208102050125074619
S11301C03B01750495016514093981426500950167
S11301D0810116000026FF0336000046FF030930A4
S11301E0093109320933093409357510950681023C
S11301F00600FF09200921092209230924092509E8
S113020026092709280929092A092B7508950C812B
S1130210020A21269508B102C01201100100000053
S113022040C410C18200010102000101C13200007A
S1130230000011241FBECFEFD2E0DEBFCDBF11E01E
S1130240A0E0B1E0E4E8FAE002C005900D92A2302B
S1130250B107D9F721E0A2E0B1E001C01D92A232BA
S1130260B207E1F70E94A3010C9440050C9400002E
S11302709093CD008093CC0088E18093C90086E000
S11302808093CA0008952091C80027FD0AC0EFE9B1
S1130290FFE03197F1F700C000000197A1F780E07B
S11302A008958091CE0008959091C80095FFFCCFE9
S11302B08093CE0008958091C80087FF03C0809189
S11302C0CE00F9CF08954AB121E030E0B90102C06F
S11302D0660F771F8A95E2F7CB01462B4AB99BB18B
S11302E0809589238BB908954AB121E030E0B901A2
S11302F002C0660F771F8A95E2F7CB01962F90957F
S113030049234AB99BB1892B8BB908951F93CF9385
S1130310DF93182F0E94540189E190E00E94430169
S1130320C82FD0E081E0810F0E94540189E190E060
S11303300E94430190E0982F88278C0F9D1FDF9126
S1130340CF911F910895CF93DF93CDB7DEB7A297D6
S11303500FB6F894DEBF0FBECDBFA89584B7877FD4
S113036084BF0FB6F894A89580916000886180934B
S11303706000109260000FBE83E090E00E9438019C
S113038080E880936100109261000E94AD020E9497
S1130390D102811119C085E00E9463012FEF80E72B
S11303A092E0215080409040E1F700C0000085E0D9
S11303B00E947401EFEFF0E722E0E150F0402040AA
S11303C0E1F700C00000E3CF8FEF99E6E8E1815048
S11303D09040E040E1F700C00000612C82E0782EFC
S11303E04424439492E0592E8FE39CE90197F1F75A
S11303F000C0000085E00E9463010E945B017E0151
S113040092E1E90EF11C10E0812F0E94540189E170
S113041090E00E944301F70181937F011F5F143034
S113042099F7CE0101967C01812F0E94540189E144
S113043090E00E944301F70181937F011F5F183010
S113044099F788E00E94540189E190E00E944301F9
S11304509E8980FB90F9282F269520FB91F9282F5F
S11304602695269520FB92F9282F269526952695E4
S113047020FB93F99E8B282F22952F709D8120FBC2
S113048090F9282F22952695277020FB91F9282F83
S1130490229526952695237020FB92F9881F88279C
S11304A0881F80FB93F99D8389E090E00E94860178
S11304B0988F8F8B8BE090E00E9486019A8F898FB2
S11304C07C8E6B8E7E8E6D8E78A26F8E7AA269A2E0
S11304D07F826E82798668867B866A867D866C8654
S11304E07F866E86798A688A85E00E9474014F92BD
S11304F08A889B88AC88BD88CE88DF88E88CF98C94
S11305000A8D1B8D2C8D3D8D4E8D5F8D68A179A13B
S11305108AA10E9404038FE39CE90197F1F700C0CC
S113052000005F9289809A80AB80BC80CD80DE80A1
S1130530EF80F88409851A852B853C854D855E8579
S11305406F85788989890E9404030F900F904CCF9E
S11305508091E80080FFFCCF089580EA8093D80062
S113056086E089BD80E090E009B400FC0DC0EFE9AD
S1130570FFE03197F1F700C000000196883EF3E0F8
S11305809F0791F781E0089580E88093D800109246
S1130590E000109203018CE08093E200789480E004
S11305A0089580910301089580910301811102C08F
S11305B08FEF08958FB7F89491E09093E9009091AC
S11305C0E4009E5C21E03091E80035FD0EC08FBF51
S11305D080910301882361F38091E400981741F32B
S11305E08FB7F8942093E900EECFE4E0F1E0919125
S11305F09093F10091E0E232F907C9F79AE39093FE
S1130600E8008FBF80E008958F929F92AF92BF92CF
S1130610CF92DF92EF92FF920F931F93CF93DF93CA
S1130620CDB7DEB761970FB6F894DEBF0FBECDBF6E
S113063089829A82AB82BC82DE82EF82F886098745
S11306401A872B873C874D875E876F87788B898BCA
S113065088A12E813F81488559856A857B85EC85F3
S1130660FD85AE85BF850889198980930401898039
S11306709A80AB80BC808092050190920601A09282
S11306800701B092080188E0809309018C2D9C2D0C
S11306909170B92E9C2D9870C92E81FF0FC0BB207C
S11306A019F097E0F92E04C082FF05C0FF24F394EB
S11306B0F09209011EC0109209011BC0992369F030
S11306C0BB2019F095E0F92E0CC082FF03C093E023
S11306D0F92E07C094E0F92E04C0BB2029F096E05F
S11306E0F92EF09209018FC082FF8DC092E0F92E9D
S11306F0F8CFFF24FA94F092160182FF04C08FEF22
S11307008093170102C010921701CC2021F08FEFC3
S11307108093180102C010921801BB2021F08FEFC2
S11307208093190102C01092190137FD07C02115E9
S113073084E038072CF02FEF33E002C020E030E0F3
S113074057FD07C0411594E059072CF04FEF53E0D3
S113075002C040E050E077FD07C0611584E07807EF
S11307602CF06FEF73E002C060E070E0F7FD07C0AB
S1130770E11594E0F9072CF0EFEFF3E002C0E0E0BC
S1130780F0E0B7FD07C0A11584E0B8072CF0AFEF87
S1130790B3E002C0A0E0B0E017FD07C0011594E08B
S11307A019072CF00FEF13E002C000E010E03093C3
S11307B00B0120930A0150930D0140930C01709397
S11307C00F0160930E01F0931101E0931001B093B7
S11307D01301A09312011093150100931401619663
S11307E00FB6F894DEBF0FBECDBFDF91CF911F913E
S11307F00F91FF90EF90DF90CF90BF90AF909F90BC
S11308008F900C94D4021092160177CF1F920F92FE
S11308100FB60F9211248F938091E1001092E100A2
S113082083FF0FC01092E90081E08093EB001092E7
S1130830EC0082E38093ED0088E08093F000109256
S113084003018F910F900FBE0F901F9018951F9268
S11308500F920FB60F9211242F933F934F935F93F0
S11308606F937F938F939F93AF93BF93CF93DF93B4
S1130870EF93FF931092E9008091E80083FFEAC0B0
S11308809091F1008091F100C091F1002091F1006C
S1130890D0E0D22B2091F1004091F10030E0342BD4
S11308A04091F1005091F10062EF6093E8008630CE
S11308B009F049C08CE790E0FC0165917491C6177A
S11308C0D707E1F4FC013296659174912617370736
S11308D0A9F4FC01349665917491FC0136968491D7
S11308E0242F30E0352B2F3F310519F010F02FEF76
S11308F030E0281708F4822F3EEF0DC0079660E021
S11309008D3A9607C9F6A6C0690F711D891B3093ED
S1130910E8008823A9F09091E800292F2570D9F3E5
S113092092FD9BC0982F813408F090E4FB01292F9D
S1130930222351F344914093F10021503196F8CF92
S1130940903449F38AC0853049F48EEF8093E800EF
S11309500E94A802C068C093E3007FC0893059F5A3
S113096091113BC0C09303018EEF8093E80041E0F6
S11309708BE292E04093E9009C012F5F3F4FFC0122
S113098054915093EB00552359F0F901249120938D
S1130990EC009C012D5F3F4F3196E491E093ED0014
S11309A04F5F453011F0C901E5CF8EE18093EA0035
S11309B01092EA0052C0883039F4903871F40E94E1
S11309C0A802809103012AC0811107C00E94A802D5
S11309D01092F1001092F10039C0232BD9F5913A0D
S11309E001F5813071F40E94A802E4E7F0E08CE79D
S11309F090E024912093F10031968E179F07C9F758
S1130A0025C0823029F40E94A8028091020106C008
S1130A10833001F50E94A802809100018093F100C7
S1130A2015C09132B9F4893041F48091E80082FF15
S1130A30FCCF8BEF8093E80009C08A3019F4D0937F
S1130A40020104C08B3031F4C09300018EEF809317
S1130A50E80003C081E28093EB00FF91EF91DF9106
S1130A60CF91BF91AF919F918F917F916F915F9142
S1130A704F913F912F910F900FBE0F901F9018959B
S1070A80F894FFCF14
S1050A8401006B
S9030000FC
